{
  "contractName": "AisthisiToken",
  "abi": [
    {
      "inputs": [],
      "stateMutability": "nonpayable",
      "type": "constructor"
    },
    {
      "anonymous": false,
      "inputs": [
        {
          "indexed": true,
          "internalType": "address",
          "name": "owner",
          "type": "address"
        },
        {
          "indexed": true,
          "internalType": "address",
          "name": "approved",
          "type": "address"
        },
        {
          "indexed": true,
          "internalType": "uint256",
          "name": "tokenId",
          "type": "uint256"
        }
      ],
      "name": "Approval",
      "type": "event"
    },
    {
      "anonymous": false,
      "inputs": [
        {
          "indexed": true,
          "internalType": "address",
          "name": "owner",
          "type": "address"
        },
        {
          "indexed": true,
          "internalType": "address",
          "name": "operator",
          "type": "address"
        },
        {
          "indexed": false,
          "internalType": "bool",
          "name": "approved",
          "type": "bool"
        }
      ],
      "name": "ApprovalForAll",
      "type": "event"
    },
    {
      "anonymous": false,
      "inputs": [
        {
          "indexed": false,
          "internalType": "address",
          "name": "account",
          "type": "address"
        }
      ],
      "name": "Paused",
      "type": "event"
    },
    {
      "anonymous": false,
      "inputs": [
        {
          "indexed": true,
          "internalType": "bytes32",
          "name": "role",
          "type": "bytes32"
        },
        {
          "indexed": true,
          "internalType": "bytes32",
          "name": "previousAdminRole",
          "type": "bytes32"
        },
        {
          "indexed": true,
          "internalType": "bytes32",
          "name": "newAdminRole",
          "type": "bytes32"
        }
      ],
      "name": "RoleAdminChanged",
      "type": "event"
    },
    {
      "anonymous": false,
      "inputs": [
        {
          "indexed": true,
          "internalType": "bytes32",
          "name": "role",
          "type": "bytes32"
        },
        {
          "indexed": true,
          "internalType": "address",
          "name": "account",
          "type": "address"
        },
        {
          "indexed": true,
          "internalType": "address",
          "name": "sender",
          "type": "address"
        }
      ],
      "name": "RoleGranted",
      "type": "event"
    },
    {
      "anonymous": false,
      "inputs": [
        {
          "indexed": true,
          "internalType": "bytes32",
          "name": "role",
          "type": "bytes32"
        },
        {
          "indexed": true,
          "internalType": "address",
          "name": "account",
          "type": "address"
        },
        {
          "indexed": true,
          "internalType": "address",
          "name": "sender",
          "type": "address"
        }
      ],
      "name": "RoleRevoked",
      "type": "event"
    },
    {
      "anonymous": false,
      "inputs": [
        {
          "indexed": true,
          "internalType": "address",
          "name": "from",
          "type": "address"
        },
        {
          "indexed": true,
          "internalType": "address",
          "name": "to",
          "type": "address"
        },
        {
          "indexed": true,
          "internalType": "uint256",
          "name": "tokenId",
          "type": "uint256"
        }
      ],
      "name": "Transfer",
      "type": "event"
    },
    {
      "anonymous": false,
      "inputs": [
        {
          "indexed": false,
          "internalType": "address",
          "name": "account",
          "type": "address"
        }
      ],
      "name": "Unpaused",
      "type": "event"
    },
    {
      "inputs": [],
      "name": "DEFAULT_ADMIN_ROLE",
      "outputs": [
        {
          "internalType": "bytes32",
          "name": "",
          "type": "bytes32"
        }
      ],
      "stateMutability": "view",
      "type": "function",
      "constant": true
    },
    {
      "inputs": [],
      "name": "MINTER_ROLE",
      "outputs": [
        {
          "internalType": "bytes32",
          "name": "",
          "type": "bytes32"
        }
      ],
      "stateMutability": "view",
      "type": "function",
      "constant": true
    },
    {
      "inputs": [],
      "name": "PAUSER_ROLE",
      "outputs": [
        {
          "internalType": "bytes32",
          "name": "",
          "type": "bytes32"
        }
      ],
      "stateMutability": "view",
      "type": "function",
      "constant": true
    },
    {
      "inputs": [
        {
          "internalType": "address",
          "name": "to",
          "type": "address"
        },
        {
          "internalType": "uint256",
          "name": "tokenId",
          "type": "uint256"
        }
      ],
      "name": "approve",
      "outputs": [],
      "stateMutability": "nonpayable",
      "type": "function"
    },
    {
      "inputs": [
        {
          "internalType": "address",
          "name": "owner",
          "type": "address"
        }
      ],
      "name": "balanceOf",
      "outputs": [
        {
          "internalType": "uint256",
          "name": "",
          "type": "uint256"
        }
      ],
      "stateMutability": "view",
      "type": "function",
      "constant": true
    },
    {
      "inputs": [
        {
          "internalType": "uint256",
          "name": "tokenId",
          "type": "uint256"
        }
      ],
      "name": "burn",
      "outputs": [],
      "stateMutability": "nonpayable",
      "type": "function"
    },
    {
      "inputs": [
        {
          "internalType": "uint256",
          "name": "tokenId",
          "type": "uint256"
        }
      ],
      "name": "getApproved",
      "outputs": [
        {
          "internalType": "address",
          "name": "",
          "type": "address"
        }
      ],
      "stateMutability": "view",
      "type": "function",
      "constant": true
    },
    {
      "inputs": [
        {
          "internalType": "bytes32",
          "name": "role",
          "type": "bytes32"
        }
      ],
      "name": "getRoleAdmin",
      "outputs": [
        {
          "internalType": "bytes32",
          "name": "",
          "type": "bytes32"
        }
      ],
      "stateMutability": "view",
      "type": "function",
      "constant": true
    },
    {
      "inputs": [
        {
          "internalType": "bytes32",
          "name": "role",
          "type": "bytes32"
        },
        {
          "internalType": "uint256",
          "name": "index",
          "type": "uint256"
        }
      ],
      "name": "getRoleMember",
      "outputs": [
        {
          "internalType": "address",
          "name": "",
          "type": "address"
        }
      ],
      "stateMutability": "view",
      "type": "function",
      "constant": true
    },
    {
      "inputs": [
        {
          "internalType": "bytes32",
          "name": "role",
          "type": "bytes32"
        }
      ],
      "name": "getRoleMemberCount",
      "outputs": [
        {
          "internalType": "uint256",
          "name": "",
          "type": "uint256"
        }
      ],
      "stateMutability": "view",
      "type": "function",
      "constant": true
    },
    {
      "inputs": [
        {
          "internalType": "bytes32",
          "name": "role",
          "type": "bytes32"
        },
        {
          "internalType": "address",
          "name": "account",
          "type": "address"
        }
      ],
      "name": "grantRole",
      "outputs": [],
      "stateMutability": "nonpayable",
      "type": "function"
    },
    {
      "inputs": [
        {
          "internalType": "bytes32",
          "name": "role",
          "type": "bytes32"
        },
        {
          "internalType": "address",
          "name": "account",
          "type": "address"
        }
      ],
      "name": "hasRole",
      "outputs": [
        {
          "internalType": "bool",
          "name": "",
          "type": "bool"
        }
      ],
      "stateMutability": "view",
      "type": "function",
      "constant": true
    },
    {
      "inputs": [
        {
          "internalType": "address",
          "name": "owner",
          "type": "address"
        },
        {
          "internalType": "address",
          "name": "operator",
          "type": "address"
        }
      ],
      "name": "isApprovedForAll",
      "outputs": [
        {
          "internalType": "bool",
          "name": "",
          "type": "bool"
        }
      ],
      "stateMutability": "view",
      "type": "function",
      "constant": true
    },
    {
      "inputs": [
        {
          "internalType": "address",
          "name": "to",
          "type": "address"
        }
      ],
      "name": "mint",
      "outputs": [],
      "stateMutability": "nonpayable",
      "type": "function"
    },
    {
      "inputs": [],
      "name": "name",
      "outputs": [
        {
          "internalType": "string",
          "name": "",
          "type": "string"
        }
      ],
      "stateMutability": "view",
      "type": "function",
      "constant": true
    },
    {
      "inputs": [
        {
          "internalType": "uint256",
          "name": "tokenId",
          "type": "uint256"
        }
      ],
      "name": "ownerOf",
      "outputs": [
        {
          "internalType": "address",
          "name": "",
          "type": "address"
        }
      ],
      "stateMutability": "view",
      "type": "function",
      "constant": true
    },
    {
      "inputs": [],
      "name": "pause",
      "outputs": [],
      "stateMutability": "nonpayable",
      "type": "function"
    },
    {
      "inputs": [],
      "name": "paused",
      "outputs": [
        {
          "internalType": "bool",
          "name": "",
          "type": "bool"
        }
      ],
      "stateMutability": "view",
      "type": "function",
      "constant": true
    },
    {
      "inputs": [
        {
          "internalType": "bytes32",
          "name": "role",
          "type": "bytes32"
        },
        {
          "internalType": "address",
          "name": "account",
          "type": "address"
        }
      ],
      "name": "renounceRole",
      "outputs": [],
      "stateMutability": "nonpayable",
      "type": "function"
    },
    {
      "inputs": [
        {
          "internalType": "bytes32",
          "name": "role",
          "type": "bytes32"
        },
        {
          "internalType": "address",
          "name": "account",
          "type": "address"
        }
      ],
      "name": "revokeRole",
      "outputs": [],
      "stateMutability": "nonpayable",
      "type": "function"
    },
    {
      "inputs": [
        {
          "internalType": "address",
          "name": "from",
          "type": "address"
        },
        {
          "internalType": "address",
          "name": "to",
          "type": "address"
        },
        {
          "internalType": "uint256",
          "name": "tokenId",
          "type": "uint256"
        }
      ],
      "name": "safeTransferFrom",
      "outputs": [],
      "stateMutability": "nonpayable",
      "type": "function"
    },
    {
      "inputs": [
        {
          "internalType": "address",
          "name": "from",
          "type": "address"
        },
        {
          "internalType": "address",
          "name": "to",
          "type": "address"
        },
        {
          "internalType": "uint256",
          "name": "tokenId",
          "type": "uint256"
        },
        {
          "internalType": "bytes",
          "name": "_data",
          "type": "bytes"
        }
      ],
      "name": "safeTransferFrom",
      "outputs": [],
      "stateMutability": "nonpayable",
      "type": "function"
    },
    {
      "inputs": [
        {
          "internalType": "address",
          "name": "operator",
          "type": "address"
        },
        {
          "internalType": "bool",
          "name": "approved",
          "type": "bool"
        }
      ],
      "name": "setApprovalForAll",
      "outputs": [],
      "stateMutability": "nonpayable",
      "type": "function"
    },
    {
      "inputs": [
        {
          "internalType": "bytes4",
          "name": "interfaceId",
          "type": "bytes4"
        }
      ],
      "name": "supportsInterface",
      "outputs": [
        {
          "internalType": "bool",
          "name": "",
          "type": "bool"
        }
      ],
      "stateMutability": "view",
      "type": "function",
      "constant": true
    },
    {
      "inputs": [],
      "name": "symbol",
      "outputs": [
        {
          "internalType": "string",
          "name": "",
          "type": "string"
        }
      ],
      "stateMutability": "view",
      "type": "function",
      "constant": true
    },
    {
      "inputs": [
        {
          "internalType": "uint256",
          "name": "index",
          "type": "uint256"
        }
      ],
      "name": "tokenByIndex",
      "outputs": [
        {
          "internalType": "uint256",
          "name": "",
          "type": "uint256"
        }
      ],
      "stateMutability": "view",
      "type": "function",
      "constant": true
    },
    {
      "inputs": [
        {
          "internalType": "address",
          "name": "owner",
          "type": "address"
        },
        {
          "internalType": "uint256",
          "name": "index",
          "type": "uint256"
        }
      ],
      "name": "tokenOfOwnerByIndex",
      "outputs": [
        {
          "internalType": "uint256",
          "name": "",
          "type": "uint256"
        }
      ],
      "stateMutability": "view",
      "type": "function",
      "constant": true
    },
    {
      "inputs": [],
      "name": "totalSupply",
      "outputs": [
        {
          "internalType": "uint256",
          "name": "",
          "type": "uint256"
        }
      ],
      "stateMutability": "view",
      "type": "function",
      "constant": true
    },
    {
      "inputs": [
        {
          "internalType": "address",
          "name": "from",
          "type": "address"
        },
        {
          "internalType": "address",
          "name": "to",
          "type": "address"
        },
        {
          "internalType": "uint256",
          "name": "tokenId",
          "type": "uint256"
        }
      ],
      "name": "transferFrom",
      "outputs": [],
      "stateMutability": "nonpayable",
      "type": "function"
    },
    {
      "inputs": [],
      "name": "unpause",
      "outputs": [],
      "stateMutability": "nonpayable",
      "type": "function"
    },
    {
      "inputs": [
        {
          "internalType": "uint256",
          "name": "tokenId",
          "type": "uint256"
        }
      ],
      "name": "tokenURI",
      "outputs": [
        {
          "internalType": "string",
          "name": "",
          "type": "string"
        }
      ],
      "stateMutability": "view",
      "type": "function",
      "constant": true
    }
  ],
  "bytecode": "0x60806040523480156200001157600080fd5b506040518060400160405280600d81526020017f4169737468697369546f6b656e000000000000000000000000000000000000008152506040518060400160405280600381526020017f41495300000000000000000000000000000000000000000000000000000000008152506040518060400160405280601e81526020017f68747470733a2f2f61697374686973692e6172742f6d657461646174612f000081525082828160029080519060200190620000ce92919062000463565b508060039080519060200190620000e792919062000463565b5050506000600c60006101000a81548160ff02191690831515021790555080600e90805190602001906200011d92919062000463565b50620001426000801b62000136620001cd60201b60201c565b620001d560201b60201c565b620001837f9f2df0fed2c77648de5860a4cc508cd0818c85b8b8a1ab4ceeef8d981c8956a662000177620001cd60201b60201c565b620001d560201b60201c565b620001c47f65d7a28e3265b37a6474929f336521b332c1681b933f6cb9f3376673440d862a620001b8620001cd60201b60201c565b620001d560201b60201c565b50505062000578565b600033905090565b620001ec82826200021d60201b620012941760201c565b6200021881600160008581526020019081526020016000206200023360201b620012a21790919060201c565b505050565b6200022f82826200026b60201b60201c565b5050565b600062000263836000018373ffffffffffffffffffffffffffffffffffffffff1660001b6200035c60201b60201c565b905092915050565b6200027d8282620003d660201b60201c565b6200035857600160008084815260200190815260200160002060000160008373ffffffffffffffffffffffffffffffffffffffff1673ffffffffffffffffffffffffffffffffffffffff16815260200190815260200160002060006101000a81548160ff021916908315150217905550620002fd620001cd60201b60201c565b73ffffffffffffffffffffffffffffffffffffffff168173ffffffffffffffffffffffffffffffffffffffff16837f2f8788117e7eff1d82e926ec794901d17c78024a50270940304540a733656f0d60405160405180910390a45b5050565b60006200037083836200044060201b60201c565b620003cb578260000182908060018154018082558091505060019003906000526020600020016000909190919091505582600001805490508360010160008481526020019081526020016000208190555060019050620003d0565b600090505b92915050565b600080600084815260200190815260200160002060000160008373ffffffffffffffffffffffffffffffffffffffff1673ffffffffffffffffffffffffffffffffffffffff16815260200190815260200160002060009054906101000a900460ff16905092915050565b600080836001016000848152602001908152602001600020541415905092915050565b828054620004719062000513565b90600052602060002090601f016020900481019282620004955760008555620004e1565b82601f10620004b057805160ff1916838001178555620004e1565b82800160010185558215620004e1579182015b82811115620004e0578251825591602001919060010190620004c3565b5b509050620004f09190620004f4565b5090565b5b808211156200050f576000816000905550600101620004f5565b5090565b600060028204905060018216806200052c57607f821691505b6020821081141562000543576200054262000549565b5b50919050565b7f4e487b7100000000000000000000000000000000000000000000000000000000600052602260045260246000fd5b6148c080620005886000396000f3fe608060405234801561001057600080fd5b50600436106101e55760003560e01c80636352211e1161010f578063a22cb465116100a2578063d539139311610071578063d5391393146105a0578063d547741f146105be578063e63ab1e9146105da578063e985e9c5146105f8576101e5565b8063a22cb46514610508578063b88d4fde14610524578063c87b56dd14610540578063ca15c87314610570576101e5565b80639010d07c116100de5780639010d07c1461046c57806391d148541461049c57806395d89b41146104cc578063a217fddf146104ea576101e5565b80636352211e146103e65780636a6278421461041657806370a08231146104325780638456cb5914610462576101e5565b80632f2ff15d1161018757806342842e0e1161015657806342842e0e1461036057806342966c681461037c5780634f6ccce7146103985780635c975abb146103c8576101e5565b80632f2ff15d146102ee5780632f745c591461030a57806336568abe1461033a5780633f4ba83a14610356576101e5565b8063095ea7b3116101c3578063095ea7b31461026857806318160ddd1461028457806323b872dd146102a2578063248a9ca3146102be576101e5565b806301ffc9a7146101ea57806306fdde031461021a578063081812fc14610238575b600080fd5b61020460048036038101906101ff9190613455565b610628565b6040516102119190614068565b60405180910390f35b61022261063a565b60405161022f919061409e565b60405180910390f35b610252600480360381019061024d91906134a7565b6106cc565b60405161025f9190614001565b60405180910390f35b610282600480360381019061027d9190613378565b610751565b005b61028c610869565b60405161029991906143e0565b60405180910390f35b6102bc60048036038101906102b79190613272565b610876565b005b6102d860048036038101906102d391906133b4565b6108d6565b6040516102e59190614083565b60405180910390f35b610308600480360381019061030391906133dd565b6108f5565b005b610324600480360381019061031f9190613378565b610929565b60405161033191906143e0565b60405180910390f35b610354600480360381019061034f91906133dd565b6109ce565b005b61035e610a02565b005b61037a60048036038101906103759190613272565b610a7c565b005b610396600480360381019061039191906134a7565b610a9c565b005b6103b260048036038101906103ad91906134a7565b610af8565b6040516103bf91906143e0565b60405180910390f35b6103d0610b8f565b6040516103dd9190614068565b60405180910390f35b61040060048036038101906103fb91906134a7565b610ba6565b60405161040d9190614001565b60405180910390f35b610430600480360381019061042b919061320d565b610c58565b005b61044c6004803603810190610447919061320d565b610ce8565b60405161045991906143e0565b60405180910390f35b61046a610da0565b005b61048660048036038101906104819190613419565b610e1a565b6040516104939190614001565b60405180910390f35b6104b660048036038101906104b191906133dd565b610e49565b6040516104c39190614068565b60405180910390f35b6104d4610eb3565b6040516104e1919061409e565b60405180910390f35b6104f2610f45565b6040516104ff9190614083565b60405180910390f35b610522600480360381019061051d919061333c565b610f4c565b005b61053e600480360381019061053991906132c1565b6110cd565b005b61055a600480360381019061055591906134a7565b61112f565b604051610567919061409e565b60405180910390f35b61058a600480360381019061058591906133b4565b611160565b60405161059791906143e0565b60405180910390f35b6105a8611184565b6040516105b59190614083565b60405180910390f35b6105d860048036038101906105d391906133dd565b6111a8565b005b6105e26111dc565b6040516105ef9190614083565b60405180910390f35b610612600480360381019061060d9190613236565b611200565b60405161061f9190614068565b60405180910390f35b6000610633826112d2565b9050919050565b6060600280546106499061469e565b80601f01602080910402602001604051908101604052809291908181526020018280546106759061469e565b80156106c25780601f10610697576101008083540402835291602001916106c2565b820191906000526020600020905b8154815290600101906020018083116106a557829003601f168201915b5050505050905090565b60006106d78261134c565b610716576040517f08c379a000000000000000000000000000000000000000000000000000000000815260040161070d906142a0565b60405180910390fd5b6006600083815260200190815260200160002060009054906101000a900473ffffffffffffffffffffffffffffffffffffffff169050919050565b600061075c82610ba6565b90508073ffffffffffffffffffffffffffffffffffffffff168373ffffffffffffffffffffffffffffffffffffffff1614156107cd576040517f08c379a00000000000000000000000000000000000000000000000000000000081526004016107c490614300565b60405180910390fd5b8073ffffffffffffffffffffffffffffffffffffffff166107ec6113b8565b73ffffffffffffffffffffffffffffffffffffffff16148061081b575061081a816108156113b8565b611200565b5b61085a576040517f08c379a000000000000000000000000000000000000000000000000000000000815260040161085190614220565b60405180910390fd5b61086483836113c0565b505050565b6000600a80549050905090565b6108876108816113b8565b82611479565b6108c6576040517f08c379a00000000000000000000000000000000000000000000000000000000081526004016108bd90614320565b60405180910390fd5b6108d1838383611557565b505050565b6000806000838152602001908152602001600020600101549050919050565b6108ff82826117b3565b61092481600160008581526020019081526020016000206112a290919063ffffffff16565b505050565b600061093483610ce8565b8210610975576040517f08c379a000000000000000000000000000000000000000000000000000000000815260040161096c90614120565b60405180910390fd5b600860008473ffffffffffffffffffffffffffffffffffffffff1673ffffffffffffffffffffffffffffffffffffffff168152602001908152602001600020600083815260200190815260200160002054905092915050565b6109d882826117dc565b6109fd816001600085815260200190815260200160002061185f90919063ffffffff16565b505050565b610a337f65d7a28e3265b37a6474929f336521b332c1681b933f6cb9f3376673440d862a610a2e6113b8565b610e49565b610a72576040517f08c379a0000000000000000000000000000000000000000000000000000000008152600401610a69906143a0565b60405180910390fd5b610a7a61188f565b565b610a97838383604051806020016040528060008152506110cd565b505050565b610aad610aa76113b8565b82611479565b610aec576040517f08c379a0000000000000000000000000000000000000000000000000000000008152600401610ae390614380565b60405180910390fd5b610af581611931565b50565b6000610b02610869565b8210610b43576040517f08c379a0000000000000000000000000000000000000000000000000000000008152600401610b3a90614340565b60405180910390fd5b600a8281548110610b7d577f4e487b7100000000000000000000000000000000000000000000000000000000600052603260045260246000fd5b90600052602060002001549050919050565b6000600c60009054906101000a900460ff16905090565b6000806004600084815260200190815260200160002060009054906101000a900473ffffffffffffffffffffffffffffffffffffffff169050600073ffffffffffffffffffffffffffffffffffffffff168173ffffffffffffffffffffffffffffffffffffffff161415610c4f576040517f08c379a0000000000000000000000000000000000000000000000000000000008152600401610c4690614260565b60405180910390fd5b80915050919050565b610c897f9f2df0fed2c77648de5860a4cc508cd0818c85b8b8a1ab4ceeef8d981c8956a6610c846113b8565b610e49565b610cc8576040517f08c379a0000000000000000000000000000000000000000000000000000000008152600401610cbf90614360565b60405180910390fd5b610cdb81610cd6600d611a42565b611a50565b610ce5600d611c1e565b50565b60008073ffffffffffffffffffffffffffffffffffffffff168273ffffffffffffffffffffffffffffffffffffffff161415610d59576040517f08c379a0000000000000000000000000000000000000000000000000000000008152600401610d5090614240565b60405180910390fd5b600560008373ffffffffffffffffffffffffffffffffffffffff1673ffffffffffffffffffffffffffffffffffffffff168152602001908152602001600020549050919050565b610dd17f65d7a28e3265b37a6474929f336521b332c1681b933f6cb9f3376673440d862a610dcc6113b8565b610e49565b610e10576040517f08c379a0000000000000000000000000000000000000000000000000000000008152600401610e0790614180565b60405180910390fd5b610e18611c34565b565b6000610e418260016000868152602001908152602001600020611cd790919063ffffffff16565b905092915050565b600080600084815260200190815260200160002060000160008373ffffffffffffffffffffffffffffffffffffffff1673ffffffffffffffffffffffffffffffffffffffff16815260200190815260200160002060009054906101000a900460ff16905092915050565b606060038054610ec29061469e565b80601f0160208091040260200160405190810160405280929190818152602001828054610eee9061469e565b8015610f3b5780601f10610f1057610100808354040283529160200191610f3b565b820191906000526020600020905b815481529060010190602001808311610f1e57829003601f168201915b5050505050905090565b6000801b81565b610f546113b8565b73ffffffffffffffffffffffffffffffffffffffff168273ffffffffffffffffffffffffffffffffffffffff161415610fc2576040517f08c379a0000000000000000000000000000000000000000000000000000000008152600401610fb9906141c0565b60405180910390fd5b8060076000610fcf6113b8565b73ffffffffffffffffffffffffffffffffffffffff1673ffffffffffffffffffffffffffffffffffffffff16815260200190815260200160002060008473ffffffffffffffffffffffffffffffffffffffff1673ffffffffffffffffffffffffffffffffffffffff16815260200190815260200160002060006101000a81548160ff0219169083151502179055508173ffffffffffffffffffffffffffffffffffffffff1661107c6113b8565b73ffffffffffffffffffffffffffffffffffffffff167f17307eab39ab6107e8899845ad3d59bd9653f200f220920489ca2b5937696c31836040516110c19190614068565b60405180910390a35050565b6110de6110d86113b8565b83611479565b61111d576040517f08c379a000000000000000000000000000000000000000000000000000000000815260040161111490614320565b60405180910390fd5b61112984848484611cf1565b50505050565b606061113a82611d4d565b60405160200161114a9190613fa5565b6040516020818303038152906040529050919050565b600061117d60016000848152602001908152602001600020611df4565b9050919050565b7f9f2df0fed2c77648de5860a4cc508cd0818c85b8b8a1ab4ceeef8d981c8956a681565b6111b28282611e09565b6111d7816001600085815260200190815260200160002061185f90919063ffffffff16565b505050565b7f65d7a28e3265b37a6474929f336521b332c1681b933f6cb9f3376673440d862a81565b6000600760008473ffffffffffffffffffffffffffffffffffffffff1673ffffffffffffffffffffffffffffffffffffffff16815260200190815260200160002060008373ffffffffffffffffffffffffffffffffffffffff1673ffffffffffffffffffffffffffffffffffffffff16815260200190815260200160002060009054906101000a900460ff16905092915050565b61129e8282611e32565b5050565b60006112ca836000018373ffffffffffffffffffffffffffffffffffffffff1660001b611f12565b905092915050565b60007f780e9d63000000000000000000000000000000000000000000000000000000007bffffffffffffffffffffffffffffffffffffffffffffffffffffffff1916827bffffffffffffffffffffffffffffffffffffffffffffffffffffffff19161480611345575061134482611f82565b5b9050919050565b60008073ffffffffffffffffffffffffffffffffffffffff166004600084815260200190815260200160002060009054906101000a900473ffffffffffffffffffffffffffffffffffffffff1673ffffffffffffffffffffffffffffffffffffffff1614159050919050565b600033905090565b816006600083815260200190815260200160002060006101000a81548173ffffffffffffffffffffffffffffffffffffffff021916908373ffffffffffffffffffffffffffffffffffffffff160217905550808273ffffffffffffffffffffffffffffffffffffffff1661143383610ba6565b73ffffffffffffffffffffffffffffffffffffffff167f8c5be1e5ebec7d5bd14f71427d1e84f3dd0314c0f7b2291e5b200ac8c7c3b92560405160405180910390a45050565b60006114848261134c565b6114c3576040517f08c379a00000000000000000000000000000000000000000000000000000000081526004016114ba906141e0565b60405180910390fd5b60006114ce83610ba6565b90508073ffffffffffffffffffffffffffffffffffffffff168473ffffffffffffffffffffffffffffffffffffffff16148061153d57508373ffffffffffffffffffffffffffffffffffffffff16611525846106cc565b73ffffffffffffffffffffffffffffffffffffffff16145b8061154e575061154d8185611200565b5b91505092915050565b8273ffffffffffffffffffffffffffffffffffffffff1661157782610ba6565b73ffffffffffffffffffffffffffffffffffffffff16146115cd576040517f08c379a00000000000000000000000000000000000000000000000000000000081526004016115c4906142c0565b60405180910390fd5b600073ffffffffffffffffffffffffffffffffffffffff168273ffffffffffffffffffffffffffffffffffffffff16141561163d576040517f08c379a0000000000000000000000000000000000000000000000000000000008152600401611634906141a0565b60405180910390fd5b611648838383612064565b6116536000826113c0565b6001600560008573ffffffffffffffffffffffffffffffffffffffff1673ffffffffffffffffffffffffffffffffffffffff16815260200190815260200160002060008282546116a39190614580565b925050819055506001600560008473ffffffffffffffffffffffffffffffffffffffff1673ffffffffffffffffffffffffffffffffffffffff16815260200190815260200160002060008282546116fa919061449f565b92505081905550816004600083815260200190815260200160002060006101000a81548173ffffffffffffffffffffffffffffffffffffffff021916908373ffffffffffffffffffffffffffffffffffffffff160217905550808273ffffffffffffffffffffffffffffffffffffffff168473ffffffffffffffffffffffffffffffffffffffff167fddf252ad1be2c89b69c2b068fc378daa952ba7f163c4a11628f55a4df523b3ef60405160405180910390a4505050565b6117bc826108d6565b6117cd816117c86113b8565b612074565b6117d78383611e32565b505050565b6117e46113b8565b73ffffffffffffffffffffffffffffffffffffffff168173ffffffffffffffffffffffffffffffffffffffff1614611851576040517f08c379a0000000000000000000000000000000000000000000000000000000008152600401611848906143c0565b60405180910390fd5b61185b8282612111565b5050565b6000611887836000018373ffffffffffffffffffffffffffffffffffffffff1660001b6121f2565b905092915050565b611897610b8f565b6118d6576040517f08c379a00000000000000000000000000000000000000000000000000000000081526004016118cd90614100565b60405180910390fd5b6000600c60006101000a81548160ff0219169083151502179055507f5db9ee0a495bf2e6ff9c91a7834c1ba4fdd244a5e8aa4e537bd38aeae4b073aa61191a6113b8565b6040516119279190614001565b60405180910390a1565b600061193c82610ba6565b905061194a81600084612064565b6119556000836113c0565b6001600560008373ffffffffffffffffffffffffffffffffffffffff1673ffffffffffffffffffffffffffffffffffffffff16815260200190815260200160002060008282546119a59190614580565b925050819055506004600083815260200190815260200160002060006101000a81549073ffffffffffffffffffffffffffffffffffffffff021916905581600073ffffffffffffffffffffffffffffffffffffffff168273ffffffffffffffffffffffffffffffffffffffff167fddf252ad1be2c89b69c2b068fc378daa952ba7f163c4a11628f55a4df523b3ef60405160405180910390a45050565b600081600001549050919050565b600073ffffffffffffffffffffffffffffffffffffffff168273ffffffffffffffffffffffffffffffffffffffff161415611ac0576040517f08c379a0000000000000000000000000000000000000000000000000000000008152600401611ab790614280565b60405180910390fd5b611ac98161134c565b15611b09576040517f08c379a0000000000000000000000000000000000000000000000000000000008152600401611b0090614160565b60405180910390fd5b611b1560008383612064565b6001600560008473ffffffffffffffffffffffffffffffffffffffff1673ffffffffffffffffffffffffffffffffffffffff1681526020019081526020016000206000828254611b65919061449f565b92505081905550816004600083815260200190815260200160002060006101000a81548173ffffffffffffffffffffffffffffffffffffffff021916908373ffffffffffffffffffffffffffffffffffffffff160217905550808273ffffffffffffffffffffffffffffffffffffffff16600073ffffffffffffffffffffffffffffffffffffffff167fddf252ad1be2c89b69c2b068fc378daa952ba7f163c4a11628f55a4df523b3ef60405160405180910390a45050565b6001816000016000828254019250508190555050565b611c3c610b8f565b15611c7c576040517f08c379a0000000000000000000000000000000000000000000000000000000008152600401611c7390614200565b60405180910390fd5b6001600c60006101000a81548160ff0219169083151502179055507f62e78cea01bee320cd4e420270b5ea74000d11b0c9f74754ebdbfc544b05a258611cc06113b8565b604051611ccd9190614001565b60405180910390a1565b6000611ce68360000183612378565b60001c905092915050565b611cfc848484611557565b611d08848484846123c9565b611d47576040517f08c379a0000000000000000000000000000000000000000000000000000000008152600401611d3e90614140565b60405180910390fd5b50505050565b6060611d588261134c565b611d97576040517f08c379a0000000000000000000000000000000000000000000000000000000008152600401611d8e906142e0565b60405180910390fd5b6000611da1612560565b90506000815111611dc15760405180602001604052806000815250611dec565b80611dcb846125f2565b604051602001611ddc929190613f81565b6040516020818303038152906040525b915050919050565b6000611e028260000161279f565b9050919050565b611e12826108d6565b611e2381611e1e6113b8565b612074565b611e2d8383612111565b505050565b611e3c8282610e49565b611f0e57600160008084815260200190815260200160002060000160008373ffffffffffffffffffffffffffffffffffffffff1673ffffffffffffffffffffffffffffffffffffffff16815260200190815260200160002060006101000a81548160ff021916908315150217905550611eb36113b8565b73ffffffffffffffffffffffffffffffffffffffff168173ffffffffffffffffffffffffffffffffffffffff16837f2f8788117e7eff1d82e926ec794901d17c78024a50270940304540a733656f0d60405160405180910390a45b5050565b6000611f1e83836127b0565b611f77578260000182908060018154018082558091505060019003906000526020600020016000909190919091505582600001805490508360010160008481526020019081526020016000208190555060019050611f7c565b600090505b92915050565b60007f80ac58cd000000000000000000000000000000000000000000000000000000007bffffffffffffffffffffffffffffffffffffffffffffffffffffffff1916827bffffffffffffffffffffffffffffffffffffffffffffffffffffffff1916148061204d57507f5b5e139f000000000000000000000000000000000000000000000000000000007bffffffffffffffffffffffffffffffffffffffffffffffffffffffff1916827bffffffffffffffffffffffffffffffffffffffffffffffffffffffff1916145b8061205d575061205c826127d3565b5b9050919050565b61206f83838361284d565b505050565b61207e8282610e49565b61210d576120a38173ffffffffffffffffffffffffffffffffffffffff1660146128a5565b6120b18360001c60206128a5565b6040516020016120c2929190613fc7565b6040516020818303038152906040526040517f08c379a0000000000000000000000000000000000000000000000000000000008152600401612104919061409e565b60405180910390fd5b5050565b61211b8282610e49565b156121ee57600080600084815260200190815260200160002060000160008373ffffffffffffffffffffffffffffffffffffffff1673ffffffffffffffffffffffffffffffffffffffff16815260200190815260200160002060006101000a81548160ff0219169083151502179055506121936113b8565b73ffffffffffffffffffffffffffffffffffffffff168173ffffffffffffffffffffffffffffffffffffffff16837ff6391f5c32d9c69d2a47ea670b442974b53935d1edc7fd64eb21e047a839171b60405160405180910390a45b5050565b6000808360010160008481526020019081526020016000205490506000811461236c5760006001826122249190614580565b905060006001866000018054905061223c9190614580565b90508181146122f7576000866000018281548110612283577f4e487b7100000000000000000000000000000000000000000000000000000000600052603260045260246000fd5b90600052602060002001549050808760000184815481106122cd577f4e487b7100000000000000000000000000000000000000000000000000000000600052603260045260246000fd5b90600052602060002001819055508387600101600083815260200190815260200160002081905550505b85600001805480612331577f4e487b7100000000000000000000000000000000000000000000000000000000600052603160045260246000fd5b600190038181906000526020600020016000905590558560010160008681526020019081526020016000206000905560019350505050612372565b60009150505b92915050565b60008260000182815481106123b6577f4e487b7100000000000000000000000000000000000000000000000000000000600052603260045260246000fd5b9060005260206000200154905092915050565b60006123ea8473ffffffffffffffffffffffffffffffffffffffff16612b9f565b15612553578373ffffffffffffffffffffffffffffffffffffffff1663150b7a026124136113b8565b8786866040518563ffffffff1660e01b8152600401612435949392919061401c565b602060405180830381600087803b15801561244f57600080fd5b505af192505050801561248057506040513d601f19601f8201168201806040525081019061247d919061347e565b60015b612503573d80600081146124b0576040519150601f19603f3d011682016040523d82523d6000602084013e6124b5565b606091505b506000815114156124fb576040517f08c379a00000000000000000000000000000000000000000000000000000000081526004016124f290614140565b60405180910390fd5b805181602001fd5b63150b7a0260e01b7bffffffffffffffffffffffffffffffffffffffffffffffffffffffff1916817bffffffffffffffffffffffffffffffffffffffffffffffffffffffff191614915050612558565b600190505b949350505050565b6060600e805461256f9061469e565b80601f016020809104026020016040519081016040528092919081815260200182805461259b9061469e565b80156125e85780601f106125bd576101008083540402835291602001916125e8565b820191906000526020600020905b8154815290600101906020018083116125cb57829003601f168201915b5050505050905090565b6060600082141561263a576040518060400160405280600181526020017f3000000000000000000000000000000000000000000000000000000000000000815250905061279a565b600082905060005b6000821461266c578080612655906146d0565b915050600a8261266591906144f5565b9150612642565b60008167ffffffffffffffff8111156126ae577f4e487b7100000000000000000000000000000000000000000000000000000000600052604160045260246000fd5b6040519080825280601f01601f1916602001820160405280156126e05781602001600182028036833780820191505090505b5090505b60008514612793576001826126f99190614580565b9150600a856127089190614719565b6030612714919061449f565b60f81b818381518110612750577f4e487b7100000000000000000000000000000000000000000000000000000000600052603260045260246000fd5b60200101907effffffffffffffffffffffffffffffffffffffffffffffffffffffffffffff1916908160001a905350600a8561278c91906144f5565b94506126e4565b8093505050505b919050565b600081600001805490509050919050565b600080836001016000848152602001908152602001600020541415905092915050565b60007f5a05180f000000000000000000000000000000000000000000000000000000007bffffffffffffffffffffffffffffffffffffffffffffffffffffffff1916827bffffffffffffffffffffffffffffffffffffffffffffffffffffffff19161480612846575061284582612bb2565b5b9050919050565b612858838383612c2c565b612860610b8f565b156128a0576040517f08c379a0000000000000000000000000000000000000000000000000000000008152600401612897906140e0565b60405180910390fd5b505050565b6060600060028360026128b89190614526565b6128c2919061449f565b67ffffffffffffffff811115612901577f4e487b7100000000000000000000000000000000000000000000000000000000600052604160045260246000fd5b6040519080825280601f01601f1916602001820160405280156129335781602001600182028036833780820191505090505b5090507f300000000000000000000000000000000000000000000000000000000000000081600081518110612991577f4e487b7100000000000000000000000000000000000000000000000000000000600052603260045260246000fd5b60200101907effffffffffffffffffffffffffffffffffffffffffffffffffffffffffffff1916908160001a9053507f780000000000000000000000000000000000000000000000000000000000000081600181518110612a1b577f4e487b7100000000000000000000000000000000000000000000000000000000600052603260045260246000fd5b60200101907effffffffffffffffffffffffffffffffffffffffffffffffffffffffffffff1916908160001a90535060006001846002612a5b9190614526565b612a65919061449f565b90505b6001811115612b51577f3031323334353637383961626364656600000000000000000000000000000000600f861660108110612acd577f4e487b7100000000000000000000000000000000000000000000000000000000600052603260045260246000fd5b1a60f81b828281518110612b0a577f4e487b7100000000000000000000000000000000000000000000000000000000600052603260045260246000fd5b60200101907effffffffffffffffffffffffffffffffffffffffffffffffffffffffffffff1916908160001a905350600485901c945080612b4a90614674565b9050612a68565b5060008414612b95576040517f08c379a0000000000000000000000000000000000000000000000000000000008152600401612b8c906140c0565b60405180910390fd5b8091505092915050565b600080823b905060008111915050919050565b60007f7965db0b000000000000000000000000000000000000000000000000000000007bffffffffffffffffffffffffffffffffffffffffffffffffffffffff1916827bffffffffffffffffffffffffffffffffffffffffffffffffffffffff19161480612c255750612c2482612d40565b5b9050919050565b612c37838383612daa565b600073ffffffffffffffffffffffffffffffffffffffff168373ffffffffffffffffffffffffffffffffffffffff161415612c7a57612c7581612daf565b612cb9565b8173ffffffffffffffffffffffffffffffffffffffff168373ffffffffffffffffffffffffffffffffffffffff1614612cb857612cb78382612df8565b5b5b600073ffffffffffffffffffffffffffffffffffffffff168273ffffffffffffffffffffffffffffffffffffffff161415612cfc57612cf781612f65565b612d3b565b8273ffffffffffffffffffffffffffffffffffffffff168273ffffffffffffffffffffffffffffffffffffffff1614612d3a57612d3982826130a8565b5b5b505050565b60007f01ffc9a7000000000000000000000000000000000000000000000000000000007bffffffffffffffffffffffffffffffffffffffffffffffffffffffff1916827bffffffffffffffffffffffffffffffffffffffffffffffffffffffff1916149050919050565b505050565b600a80549050600b600083815260200190815260200160002081905550600a81908060018154018082558091505060019003906000526020600020016000909190919091505550565b60006001612e0584610ce8565b612e0f9190614580565b9050600060096000848152602001908152602001600020549050818114612ef4576000600860008673ffffffffffffffffffffffffffffffffffffffff1673ffffffffffffffffffffffffffffffffffffffff168152602001908152602001600020600084815260200190815260200160002054905080600860008773ffffffffffffffffffffffffffffffffffffffff1673ffffffffffffffffffffffffffffffffffffffff168152602001908152602001600020600084815260200190815260200160002081905550816009600083815260200190815260200160002081905550505b6009600084815260200190815260200160002060009055600860008573ffffffffffffffffffffffffffffffffffffffff1673ffffffffffffffffffffffffffffffffffffffff16815260200190815260200160002060008381526020019081526020016000206000905550505050565b60006001600a80549050612f799190614580565b90506000600b60008481526020019081526020016000205490506000600a8381548110612fcf577f4e487b7100000000000000000000000000000000000000000000000000000000600052603260045260246000fd5b9060005260206000200154905080600a8381548110613017577f4e487b7100000000000000000000000000000000000000000000000000000000600052603260045260246000fd5b906000526020600020018190555081600b600083815260200190815260200160002081905550600b600085815260200190815260200160002060009055600a80548061308c577f4e487b7100000000000000000000000000000000000000000000000000000000600052603160045260246000fd5b6001900381819060005260206000200160009055905550505050565b60006130b383610ce8565b905081600860008573ffffffffffffffffffffffffffffffffffffffff1673ffffffffffffffffffffffffffffffffffffffff168152602001908152602001600020600083815260200190815260200160002081905550806009600084815260200190815260200160002081905550505050565b600061313a6131358461442c565b6143fb565b90508281526020810184848401111561315257600080fd5b61315d848285614632565b509392505050565b60008135905061317481614817565b92915050565b6000813590506131898161482e565b92915050565b60008135905061319e81614845565b92915050565b6000813590506131b38161485c565b92915050565b6000815190506131c88161485c565b92915050565b600082601f8301126131df57600080fd5b81356131ef848260208601613127565b91505092915050565b60008135905061320781614873565b92915050565b60006020828403121561321f57600080fd5b600061322d84828501613165565b91505092915050565b6000806040838503121561324957600080fd5b600061325785828601613165565b925050602061326885828601613165565b9150509250929050565b60008060006060848603121561328757600080fd5b600061329586828701613165565b93505060206132a686828701613165565b92505060406132b7868287016131f8565b9150509250925092565b600080600080608085870312156132d757600080fd5b60006132e587828801613165565b94505060206132f687828801613165565b9350506040613307878288016131f8565b925050606085013567ffffffffffffffff81111561332457600080fd5b613330878288016131ce565b91505092959194509250565b6000806040838503121561334f57600080fd5b600061335d85828601613165565b925050602061336e8582860161317a565b9150509250929050565b6000806040838503121561338b57600080fd5b600061339985828601613165565b92505060206133aa858286016131f8565b9150509250929050565b6000602082840312156133c657600080fd5b60006133d48482850161318f565b91505092915050565b600080604083850312156133f057600080fd5b60006133fe8582860161318f565b925050602061340f85828601613165565b9150509250929050565b6000806040838503121561342c57600080fd5b600061343a8582860161318f565b925050602061344b858286016131f8565b9150509250929050565b60006020828403121561346757600080fd5b6000613475848285016131a4565b91505092915050565b60006020828403121561349057600080fd5b600061349e848285016131b9565b91505092915050565b6000602082840312156134b957600080fd5b60006134c7848285016131f8565b91505092915050565b6134d9816145b4565b82525050565b6134e8816145c6565b82525050565b6134f7816145d2565b82525050565b60006135088261445c565b6135128185614472565b9350613522818560208601614641565b61352b81614806565b840191505092915050565b600061354182614467565b61354b8185614483565b935061355b818560208601614641565b61356481614806565b840191505092915050565b600061357a82614467565b6135848185614494565b9350613594818560208601614641565b80840191505092915050565b60006135ad602083614483565b91507f537472696e67733a20686578206c656e67746820696e73756666696369656e746000830152602082019050919050565b60006135ed602b83614483565b91507f4552433732315061757361626c653a20746f6b656e207472616e73666572207760008301527f68696c65207061757365640000000000000000000000000000000000000000006020830152604082019050919050565b6000613653601483614483565b91507f5061757361626c653a206e6f74207061757365640000000000000000000000006000830152602082019050919050565b6000613693602b83614483565b91507f455243373231456e756d657261626c653a206f776e657220696e646578206f7560008301527f74206f6620626f756e64730000000000000000000000000000000000000000006020830152604082019050919050565b60006136f9603283614483565b91507f4552433732313a207472616e7366657220746f206e6f6e20455243373231526560008301527f63656976657220696d706c656d656e74657200000000000000000000000000006020830152604082019050919050565b600061375f601c83614483565b91507f4552433732313a20746f6b656e20616c7265616479206d696e746564000000006000830152602082019050919050565b600061379f603e83614483565b91507f4552433732315072657365744d696e7465725061757365724175746f49643a2060008301527f6d75737420686176652070617573657220726f6c6520746f20706175736500006020830152604082019050919050565b6000613805602483614483565b91507f4552433732313a207472616e7366657220746f20746865207a65726f2061646460008301527f72657373000000000000000000000000000000000000000000000000000000006020830152604082019050919050565b600061386b601983614483565b91507f4552433732313a20617070726f766520746f2063616c6c6572000000000000006000830152602082019050919050565b60006138ab602c83614483565b91507f4552433732313a206f70657261746f7220717565727920666f72206e6f6e657860008301527f697374656e7420746f6b656e00000000000000000000000000000000000000006020830152604082019050919050565b6000613911601083614483565b91507f5061757361626c653a20706175736564000000000000000000000000000000006000830152602082019050919050565b6000613951603883614483565b91507f4552433732313a20617070726f76652063616c6c6572206973206e6f74206f7760008301527f6e6572206e6f7220617070726f76656420666f7220616c6c00000000000000006020830152604082019050919050565b60006139b7602a83614483565b91507f4552433732313a2062616c616e636520717565727920666f7220746865207a6560008301527f726f2061646472657373000000000000000000000000000000000000000000006020830152604082019050919050565b6000613a1d602983614483565b91507f4552433732313a206f776e657220717565727920666f72206e6f6e657869737460008301527f656e7420746f6b656e00000000000000000000000000000000000000000000006020830152604082019050919050565b6000613a83602083614483565b91507f4552433732313a206d696e7420746f20746865207a65726f20616464726573736000830152602082019050919050565b6000613ac3602c83614483565b91507f4552433732313a20617070726f76656420717565727920666f72206e6f6e657860008301527f697374656e7420746f6b656e00000000000000000000000000000000000000006020830152604082019050919050565b6000613b29600583614494565b91507f2e6a736f6e0000000000000000000000000000000000000000000000000000006000830152600582019050919050565b6000613b69602983614483565b91507f4552433732313a207472616e73666572206f6620746f6b656e2074686174206960008301527f73206e6f74206f776e00000000000000000000000000000000000000000000006020830152604082019050919050565b6000613bcf602f83614483565b91507f4552433732314d657461646174613a2055524920717565727920666f72206e6f60008301527f6e6578697374656e7420746f6b656e00000000000000000000000000000000006020830152604082019050919050565b6000613c35602183614483565b91507f4552433732313a20617070726f76616c20746f2063757272656e74206f776e6560008301527f72000000000000000000000000000000000000000000000000000000000000006020830152604082019050919050565b6000613c9b603183614483565b91507f4552433732313a207472616e736665722063616c6c6572206973206e6f74206f60008301527f776e6572206e6f7220617070726f7665640000000000000000000000000000006020830152604082019050919050565b6000613d01602c83614483565b91507f455243373231456e756d657261626c653a20676c6f62616c20696e646578206f60008301527f7574206f6620626f756e647300000000000000000000000000000000000000006020830152604082019050919050565b6000613d67601783614494565b91507f416363657373436f6e74726f6c3a206163636f756e74200000000000000000006000830152601782019050919050565b6000613da7603d83614483565b91507f4552433732315072657365744d696e7465725061757365724175746f49643a2060008301527f6d7573742068617665206d696e74657220726f6c6520746f206d696e740000006020830152604082019050919050565b6000613e0d603083614483565b91507f4552433732314275726e61626c653a2063616c6c6572206973206e6f74206f7760008301527f6e6572206e6f7220617070726f766564000000000000000000000000000000006020830152604082019050919050565b6000613e73604083614483565b91507f4552433732315072657365744d696e7465725061757365724175746f49643a2060008301527f6d75737420686176652070617573657220726f6c6520746f20756e70617573656020830152604082019050919050565b6000613ed9601183614494565b91507f206973206d697373696e6720726f6c65200000000000000000000000000000006000830152601182019050919050565b6000613f19602f83614483565b91507f416363657373436f6e74726f6c3a2063616e206f6e6c792072656e6f756e636560008301527f20726f6c657320666f722073656c6600000000000000000000000000000000006020830152604082019050919050565b613f7b81614628565b82525050565b6000613f8d828561356f565b9150613f99828461356f565b91508190509392505050565b6000613fb1828461356f565b9150613fbc82613b1c565b915081905092915050565b6000613fd282613d5a565b9150613fde828561356f565b9150613fe982613ecc565b9150613ff5828461356f565b91508190509392505050565b600060208201905061401660008301846134d0565b92915050565b600060808201905061403160008301876134d0565b61403e60208301866134d0565b61404b6040830185613f72565b818103606083015261405d81846134fd565b905095945050505050565b600060208201905061407d60008301846134df565b92915050565b600060208201905061409860008301846134ee565b92915050565b600060208201905081810360008301526140b88184613536565b905092915050565b600060208201905081810360008301526140d9816135a0565b9050919050565b600060208201905081810360008301526140f9816135e0565b9050919050565b6000602082019050818103600083015261411981613646565b9050919050565b6000602082019050818103600083015261413981613686565b9050919050565b60006020820190508181036000830152614159816136ec565b9050919050565b6000602082019050818103600083015261417981613752565b9050919050565b6000602082019050818103600083015261419981613792565b9050919050565b600060208201905081810360008301526141b9816137f8565b9050919050565b600060208201905081810360008301526141d98161385e565b9050919050565b600060208201905081810360008301526141f98161389e565b9050919050565b6000602082019050818103600083015261421981613904565b9050919050565b6000602082019050818103600083015261423981613944565b9050919050565b60006020820190508181036000830152614259816139aa565b9050919050565b6000602082019050818103600083015261427981613a10565b9050919050565b6000602082019050818103600083015261429981613a76565b9050919050565b600060208201905081810360008301526142b981613ab6565b9050919050565b600060208201905081810360008301526142d981613b5c565b9050919050565b600060208201905081810360008301526142f981613bc2565b9050919050565b6000602082019050818103600083015261431981613c28565b9050919050565b6000602082019050818103600083015261433981613c8e565b9050919050565b6000602082019050818103600083015261435981613cf4565b9050919050565b6000602082019050818103600083015261437981613d9a565b9050919050565b6000602082019050818103600083015261439981613e00565b9050919050565b600060208201905081810360008301526143b981613e66565b9050919050565b600060208201905081810360008301526143d981613f0c565b9050919050565b60006020820190506143f56000830184613f72565b92915050565b6000604051905081810181811067ffffffffffffffff82111715614422576144216147d7565b5b8060405250919050565b600067ffffffffffffffff821115614447576144466147d7565b5b601f19601f8301169050602081019050919050565b600081519050919050565b600081519050919050565b600082825260208201905092915050565b600082825260208201905092915050565b600081905092915050565b60006144aa82614628565b91506144b583614628565b9250827fffffffffffffffffffffffffffffffffffffffffffffffffffffffffffffffff038211156144ea576144e961474a565b5b828201905092915050565b600061450082614628565b915061450b83614628565b92508261451b5761451a614779565b5b828204905092915050565b600061453182614628565b915061453c83614628565b9250817fffffffffffffffffffffffffffffffffffffffffffffffffffffffffffffffff04831182151516156145755761457461474a565b5b828202905092915050565b600061458b82614628565b915061459683614628565b9250828210156145a9576145a861474a565b5b828203905092915050565b60006145bf82614608565b9050919050565b60008115159050919050565b6000819050919050565b60007fffffffff0000000000000000000000000000000000000000000000000000000082169050919050565b600073ffffffffffffffffffffffffffffffffffffffff82169050919050565b6000819050919050565b82818337600083830152505050565b60005b8381101561465f578082015181840152602081019050614644565b8381111561466e576000848401525b50505050565b600061467f82614628565b915060008214156146935761469261474a565b5b600182039050919050565b600060028204905060018216806146b657607f821691505b602082108114156146ca576146c96147a8565b5b50919050565b60006146db82614628565b91507fffffffffffffffffffffffffffffffffffffffffffffffffffffffffffffffff82141561470e5761470d61474a565b5b600182019050919050565b600061472482614628565b915061472f83614628565b92508261473f5761473e614779565b5b828206905092915050565b7f4e487b7100000000000000000000000000000000000000000000000000000000600052601160045260246000fd5b7f4e487b7100000000000000000000000000000000000000000000000000000000600052601260045260246000fd5b7f4e487b7100000000000000000000000000000000000000000000000000000000600052602260045260246000fd5b7f4e487b7100000000000000000000000000000000000000000000000000000000600052604160045260246000fd5b6000601f19601f8301169050919050565b614820816145b4565b811461482b57600080fd5b50565b614837816145c6565b811461484257600080fd5b50565b61484e816145d2565b811461485957600080fd5b50565b614865816145dc565b811461487057600080fd5b50565b61487c81614628565b811461488757600080fd5b5056fea2646970667358221220d1c9c34c5b053c9574e86d47256a504f18cac6f437a6dfc251a11cf7360c25b564736f6c63430008000033",
  "immutableReferences": {},
  "source": "// SPDX-License-Identifier: MIT\npragma solidity ^0.8.0;\n\nimport \"@openzeppelin/contracts/token/ERC721/presets/ERC721PresetMinterPauserAutoId.sol\";\n\ncontract AisthisiToken is ERC721PresetMinterPauserAutoId {\n\n    constructor() ERC721PresetMinterPauserAutoId(\"AisthisiToken\", \"AIS\", \"https://aisthisi.art/metadata/\") {}\n\n    function tokenURI(uint256 tokenId) public view virtual override returns(string memory) {\n        return string(abi.encodePacked(super.tokenURI(tokenId), \".json\"));\n    }\n}",
  "sourcePath": "/home/artem/my_erc721_sv/contracts/AisthisiToken.sol",
  "compiler": {
    "name": "solc",
    "version": "0.8.0+commit.c7dfd78e.Emscripten.clang"
  },
  "schemaVersion": "3.4.3",
  "updatedAt": "2021-10-28T17:53:57.155Z",
  "networkType": "ethereum",
  "devdoc": {
    "kind": "dev",
    "methods": {
      "approve(address,uint256)": {
        "details": "See {IERC721-approve}."
      },
      "balanceOf(address)": {
        "details": "See {IERC721-balanceOf}."
      },
      "burn(uint256)": {
        "details": "Burns `tokenId`. See {ERC721-_burn}. Requirements: - The caller must own `tokenId` or be an approved operator."
      },
      "getApproved(uint256)": {
        "details": "See {IERC721-getApproved}."
      },
      "getRoleAdmin(bytes32)": {
        "details": "Returns the admin role that controls `role`. See {grantRole} and {revokeRole}. To change a role's admin, use {_setRoleAdmin}."
      },
      "getRoleMember(bytes32,uint256)": {
        "details": "Returns one of the accounts that have `role`. `index` must be a value between 0 and {getRoleMemberCount}, non-inclusive. Role bearers are not sorted in any particular way, and their ordering may change at any point. WARNING: When using {getRoleMember} and {getRoleMemberCount}, make sure you perform all queries on the same block. See the following https://forum.openzeppelin.com/t/iterating-over-elements-on-enumerableset-in-openzeppelin-contracts/2296[forum post] for more information."
      },
      "getRoleMemberCount(bytes32)": {
        "details": "Returns the number of accounts that have `role`. Can be used together with {getRoleMember} to enumerate all bearers of a role."
      },
      "grantRole(bytes32,address)": {
        "details": "Overload {grantRole} to track enumerable memberships"
      },
      "hasRole(bytes32,address)": {
        "details": "Returns `true` if `account` has been granted `role`."
      },
      "isApprovedForAll(address,address)": {
        "details": "See {IERC721-isApprovedForAll}."
      },
      "mint(address)": {
        "details": "Creates a new token for `to`. Its token ID will be automatically assigned (and available on the emitted {IERC721-Transfer} event), and the token URI autogenerated based on the base URI passed at construction. See {ERC721-_mint}. Requirements: - the caller must have the `MINTER_ROLE`."
      },
      "name()": {
        "details": "See {IERC721Metadata-name}."
      },
      "ownerOf(uint256)": {
        "details": "See {IERC721-ownerOf}."
      },
      "pause()": {
        "details": "Pauses all token transfers. See {ERC721Pausable} and {Pausable-_pause}. Requirements: - the caller must have the `PAUSER_ROLE`."
      },
      "paused()": {
        "details": "Returns true if the contract is paused, and false otherwise."
      },
      "renounceRole(bytes32,address)": {
        "details": "Overload {renounceRole} to track enumerable memberships"
      },
      "revokeRole(bytes32,address)": {
        "details": "Overload {revokeRole} to track enumerable memberships"
      },
      "safeTransferFrom(address,address,uint256)": {
        "details": "See {IERC721-safeTransferFrom}."
      },
      "safeTransferFrom(address,address,uint256,bytes)": {
        "details": "See {IERC721-safeTransferFrom}."
      },
      "setApprovalForAll(address,bool)": {
        "details": "See {IERC721-setApprovalForAll}."
      },
      "supportsInterface(bytes4)": {
        "details": "See {IERC165-supportsInterface}."
      },
      "symbol()": {
        "details": "See {IERC721Metadata-symbol}."
      },
      "tokenByIndex(uint256)": {
        "details": "See {IERC721Enumerable-tokenByIndex}."
      },
      "tokenOfOwnerByIndex(address,uint256)": {
        "details": "See {IERC721Enumerable-tokenOfOwnerByIndex}."
      },
      "tokenURI(uint256)": {
        "details": "See {IERC721Metadata-tokenURI}."
      },
      "totalSupply()": {
        "details": "See {IERC721Enumerable-totalSupply}."
      },
      "transferFrom(address,address,uint256)": {
        "details": "See {IERC721-transferFrom}."
      },
      "unpause()": {
        "details": "Unpauses all token transfers. See {ERC721Pausable} and {Pausable-_unpause}. Requirements: - the caller must have the `PAUSER_ROLE`."
      }
    },
    "version": 1
  },
  "userdoc": {
    "kind": "user",
    "methods": {},
    "version": 1
  }
}